:100000000C9428010C9445010C9445010C94450175
:100010000C9445010C9445010C9445010C94450148
:100020000C9445010C9445010C940E1C0C94E11C9D
:100030000C944A170C9445010C9445010C9445010D
:100040000C9445010C9445010C9445010C94450118
:100050000C9445010C94C2170C9445010C94450175
:100060000C9445010C9445010C9445010C944501F8
:100070000C9445010C9445010C9445010C944501E8
:100080000C9445010C9445010C9445010C944501D8
:100090000C9445010C9445010C9445010C944501C8
:1000A0000C9445010C9445010C9445015F006000DF
:1000B000610054005C005D005E00550059005A006C
:1000C0005B00560062006300580057002203730073
:1000D000640066005F003300780032005F006D004E
:1000E0006100630072006F00700061006400000036
:1000F00012034D0065007400680061007300200069
:100100004E0000000403090409023B00020100A0A4
:10011000FA09040000010301010009211101000195
:1001200022440007058103080001090401000103BE
:1001300000000009211101000122B6000705820319
:100140002000011201000200000008EDFE00000086
:10015000010102000105010902A10185020901A1B5
:100160000005091901290815002501950875018167
:10017000020501093009311581257F950275088135
:100180000609381581257F950175088106050C0A39
:1001900038021581257F950175088106C0C00501CB
:1001A0000980A101850319012AB700150126B700AE
:1001B000950175108100C0050C0901A10185041984
:1001C000012AA002150126A002950175108100C028
:1001D00005010906A1018506050719E029E71500B3
:1001E00025019508750181020507190029EF150001
:1001F000250195F07501810205081901290595056C
:1002000075019102950175039101C005010906A1CF
:1002100001050719E029E7150025019508750181F9
:10022000029501750881010507190029FF150026AF
:10023000FF009506750881000508190129051500BC
:100240002501950575019102950175039101C00085
:1002500011241FBECFEFDAE0DEBFCDBF11E0A0E07A
:10026000B1E0E0E6FFE302C005900D92AE38B107C1
:10027000D9F722E0AEE8B1E001C01D92A538B2077F
:10028000E1F70E94AD100C945C1F0C9400008111EA
:1002900011C0862F842B843068F484E0689FF001BD
:1002A0001124E40FF11DEE0FFF1FE455FF4F859160
:1002B0009491089581E090E008950E944701089587
:1002C00081E0089581E008950E946001089581E031
:1002D000089581E0089581E008950E946B010895DA
:1002E000089508950E947001089508950895A6E064
:1002F000B0E0EDE7F1E00C94B81E49835A839E8389
:100300003091950189819A8131111AC03E81311550
:1003100099F0211589F00E945E07182F682F8981B6
:100320009A810E943B0769817A81812F0E94590E30
:100330002696E3E00C94D41E0E944C07182FF3CFAE
:100340000E945E0769817A81F1CFFC01262F4081EE
:10035000518162817381848195810E947701089522
:10036000CF93DF93D82FC92F61E00E94A5016D2F95
:100370007C2F0E946201811549F061E08D2F9C2F36
:100380000E94A5016D2F7C2F0E946401DF91CF9107
:1003900008950F931F93CF93DF93D82FC92F60E059
:1003A0000E94A5018C016D2F7C2F0E9471016D2F81
:1003B0007C2FC8010E947201DF91CF911F910F9194
:1003C000089521E030E0A90102C0440F551F8A952D
:1003D000E2F7CA010E945D060895CF93C82F81E01D
:1003E00090E00C2E02C0880F991F0A94E2F70E9439
:1003F000BB0B8C2F0E94E101CF91089581E00895FD
:1004000081E008950E94FE010895CF93C82F0E94B5
:1004100007068C2F0E9400028C2F0E9402022FEFF1
:1004200084E39CE0215080409040E1F700C0000050
:10043000CF91089581E00E9405020E94E617089579
:1004400080E00E9405020E94F71708950F931F9302
:10045000CF93DF938C0161E00E94A501EC01B8010C
:100460000E946901811509F442C0B801CE010E94C1
:100470006D018115E1F1B801CE010E94BE14811514
:10048000B1F1B801CE010E941311811581F1B801BB
:10049000CE010E94E810811551F1B801CE010E94F1
:1004A0005C0F811521F1F8018581811581F0CA3534
:1004B000FCE7DF0739F178F4C130ECE7DE07F9F04B
:1004C000C330FCE7DF07C9F0C115DC4771F0C80194
:1004D0000E9467010DC0CB35ECE7DE07B1F0CC35EB
:1004E000DC47A9F70E948D0BF2CF0E941A0280E030
:1004F000DF91CF911F910F9108950E949E0B0E9452
:100500002002F5CF0E94960BE2CF0E949A0BDFCF1C
:100510000E9475010E941D170E94AC0208950E945E
:10052000B0020E9476010E942217089581E008958A
:100530000895CF93DF93D82F0E949602C82F81157C
:1005400019F08D2F0E9498028C2FDF91CF91089582
:1005500008950E949902089580E00E94A9020895DA
:100560000E9405150E94A9020895CF930E940515C7
:10057000C82F809190018C1779F0C09390010E9450
:10058000B6176093910170939201809393019093B9
:1005900094018C2F0E94A902CF910895ADE0B0E0A4
:1005A000E4EDF2E00C94B91E488759876A877B878F
:1005B0008C879D8791110E94990A1F8286E0FE0117
:1005C0003896DE01119601900D928A95E1F78D81A2
:1005D00081110DC029813A814B815C816D817E81C1
:1005E0008F810E94E3092D96E2E00C94D51ECE0186
:1005F00001960E94B0018111EDCFF5CFFC018481FD
:10060000813021F4808191810E94900708956115C5
:1006100029F00E9479120E943A1308950E94C21292
:10062000FACFCF93C82F811599F08CEF8C0F813AB8
:1006300088F48C2F0E94A915811529F08C2F0E9417
:1006400052160E942F0B8C2F0E9438160E942F0BDF
:10065000CF91089580E28C0F883048F4C77081E014
:1006600001C0880FCA95EAF70E947A0AEFCF8BE59E
:100670008C0F833038F42C2F2452330BC9010E9485
:100680003B15E6CFE8E5EC0FEB3150F4F0E0EE0F70
:10069000FF1FE65EFE4F808191810E946115D8CFD9
:1006A00083E38C0F8331A0F661E08C2F0E94070357
:1006B000CFCF811581F19CEF980F913A28F40E94D9
:1006C00052160E942F0B089590E2980F983050F424
:1006D000877091E001C0990F8A95EAF7892F0E94EF
:1006E000800AEFCF9BE5980F933028F480E090E0EC
:1006F0000E943B15089598E5980F9B3128F480E0FF
:1007000090E00E946115089593E3980F933118F4D7
:1007100060E00E94070308950F931F93CF93C82FA3
:100720008B010E9411030115110539F48C2F0E94D1
:100730005903CF911F910F9108958FE99FE0019781
:10074000F1F700C0000001501109EDCF60E570E045
:10075000893311F060E070E00E948C0308958115E8
:1007600021F00E947A0A0E942F0B0895811521F032
:100770000E94800A0E942F0B0895A0E0B0E0E3ECF5
:10078000F3E00C94B31E6C01D62FC72FFC0115812A
:10079000068102950F700E946F0AE82E8115F9F00C
:1007A000E12E1115E1F08C2F807F803461F080E222
:1007B0008D0F8830F0F08C2F807E803221F4D23083
:1007C000C0F00115B1F080916B0282FF12C082E08F
:1007D0000E94600B0E946F0A91E0E82EE926EC2F40
:1007E000E295EF70C03CB0F5F0E0E25AF04E0C94A8
:1007F000A31EE12CF4CF0C2F0F70C03110F0029526
:10080000007F111599F0011559F080E28D0F8830A5
:1008100010F0D11107C0802F0E947A0A0E942F0B7E
:100820008D2F4EC0802F0E948B0AF8CF8D2F0E94F3
:100830005903011579F080E28D0F883010F0D11145
:1008400004C0802F0E94800A03C0802F0E94910A5A
:100850000E942F0BE11409F4CBC00E946B0A80FDAB
:10086000C7C0F60115820E94650A0E949906C6015A
:100870000E94CE050E94650A0E94A906B9C0FC2FFD
:10088000FF70FF2EC07FC03219F0F29480EFF82283
:10089000D11541F0D130C9F1111509F443C001154A
:1008A000E9F0BECF80916B0282FD14C0111559F0A2
:1008B000F11429F08F2D0E947A0A0E942F0B80E0FC
:1008C0000E941103C7CF80E00E945903F11411F276
:1008D0008F2DB8CF111569F0011104C08F2D0E9422
:1008E000AF03B8CF013009F0B5CF8F2D0E94B10A08
:1008F000B1CF0111AFCF8F2D0E94B6038F2D0E9473
:10090000BD0A8F2D0E94A00AA5CF111521F0063037
:1009100008F0A0CFE3CF053008F09CCF8F2D0E94C8
:10092000B60398CF0115D1F3D93349F42FEF87EEF1
:1009300093E0215080409040E1F700C000008D2FEF
:100940000E94590387CF8C2F8695869583708115D9
:1009500069F0813009F07ECF8D2F9C2F937011119B
:1009600002C080E090E00E94611574CF8D2F9C2F13
:100970009370111102C080E090E00E943B156ACF95
:10098000612F8D2F0E94070365CF8C2F83708111FB
:100990003DC0111129C04D2F429546954770440F17
:1009A000440F2D2F2F7030E0042E02C0220F331F72
:1009B0000A94E2F780E090E0D4FF09C08FE090E075
:1009C00002C0880F991F4A95E2F780959095C695C9
:1009D000C695C370822B932BC23091F0C33099F02F
:1009E000C13059F00E9469060E9405150E94A902B3
:1009F000CDB7DEB7E8E00C94CF1E0E946006F4CFBE
:100A00000E947206F1CF0E945D06EECF111561F1D2
:100A1000C0FFEACF4D2F429546954770440F440FD3
:100A20002D2F2F7030E0042E02C0220F331F0A94A6
:100A3000E2F780E090E0D4FF09C08FE090E002C0D0
:100A4000880F991F4A95E2F780959095C695C695AF
:100A5000C370822B932BC23071F0C33079F0C13058
:100A600039F00E94D406C0CF823008F4BDCFD2CF77
:100A70000E94CB06B9CF0E94DD06B6CF0E94810648
:100A8000B3CFCF70111539F08C2F0E9499068D2F9E
:100A90000E94AF03A9CF8D2F0E94B6038C2F0E9416
:100AA000A906A2CFD23F41F170F4D03FC9F0D13FA7
:100AB00091F0111509F446C0011509F440C08D2FBD
:100AC0000E94110391CFD33FF1F0D43F91F7809171
:100AD0006B0282FD22C08C2F8F71111501F310C0A3
:100AE000111541F0053008F07FCF8C2F8F710E94D7
:100AF000BB067ACF0630F7CF8C2F8F711111CFCF75
:100B00000E94990671CF111529F08C2F8F710E94C8
:100B10008D066ACF0E94880667CF111531F063E019
:100B20008C2F8F710E94410B5FCF81E00E94600B80
:100B3000023008F459CF82E00E94600B55CF8C2F11
:100B40008F71DECF011579F0D93349F4EFEFF7EE6D
:100B500023E0E150F0402040E1F700C000008D2F7D
:100B60000E94590341CF8C2F8F7199CF0F931F9300
:100B7000CF93DF93EC01688179818D810E949D077D
:100B80008C010E94E6060E945C06B801CE010E941C
:100B9000BD03DF91CF911F910F910895CF93DF9304
:100BA000EC018C81811599F0CE010E942602811101
:100BB00011C00E946F0A811551F08D81811539F0A5
:100BC00080916B0282FF03C082E00E94600BDF9184
:100BD000CF910895CE010E94B605CE010E94C901B1
:100BE000F6CF80E090E00E943B1580E090E00E940C
:100BF00061150E94990A0E942F0B0E9457130E94B0
:100C00003A1308950E946C160E94F10508950E94FF
:100C1000880A0E9402060895282F92959F709630A8
:100C200099F060F4925F9F70923030F4203FB1F001
:100C300038F481E0283E38F080E008959A5FF3CFE1
:100C400081E0243FC9F7089591E0813F09F090E0E9
:100C500081E0283E08F080E0892B089581E0089526
:100C6000FC018481811539F0808191810E94900777
:100C70000E940C06089580E00895A6E0B0E0E3E449
:100C8000F6E00C94B91E2696E2E00C94D51EA7E07F
:100C9000B0E0EDE4F6E00C94B91E2796E2E00C9487
:100CA000D51E08950E94510608950E945206909301
:100CB000A1018093A001089508950E94550608950A
:100CC0002091A0013091A101822B932B0E94550607
:100CD00008952091A0013091A101822393230E94C5
:100CE000550608952091A0013091A10182279327F4
:100CF0000E94550608950E94510608950E947B06A1
:100D000008950E947E0690939F0180939E0108950E
:100D100080E090E00E948106089521E030E0A90182
:100D200002C0440F551F8A95E2F7CA010E9481064E
:100D3000089521E030E002C0220F331F8A95E2F7C8
:100D400080919E0190919F01822B932B0E9481069E
:100D5000089521E030E002C0220F331F8A95E2F7A8
:100D60002095309580919E0190919F01822393233D
:100D70000E948106089521E030E002C0220F331F57
:100D80008A95E2F780919E0190919F018227932797
:100D90000E948106089520919E0130919F01822B2F
:100DA000932B0E948106089520919E0130919F010E
:100DB000822393230E948106089520919E01309101
:100DC0009F01822793270E948106089508959B0121
:100DD000677091E001C0990F6A95EAF763E0369574
:100DE00027956A95E1F7220F331F220F331FFA016F
:100DF000E20FF31F40E050E0682F70E08191DF01C7
:100E00009B01042E02C0369527950A94E2F72170C3
:100E100021952827292328272E934F5F5F4F4430A1
:100E2000510561F708959C01982F977083E03695DE
:100E300027958A95E1F7220F331F220F331FFB01FD
:100E4000E20FF31F40E050E080E0219130E0092EF6
:100E500002C0369527950A94E2F721703327042EB5
:100E600001C0220F0A94EAF7822B4F5F5F4F443094
:100E7000510559F70895282F862F322F392B3430FA
:100E800050F434E0939FB0011124620F711D46E9C4
:100E900051E00E94E7060895282F892F822B843085
:100EA00058F434E0939FC001112466E971E0820F89
:100EB000911D0E941307089580E00895A0E0B0E01E
:100EC000E4E6F7E00C94B21E8C01E0909E01F090F5
:100ED0009F018091A0019091A101E82AF92ACFE019
:100EE000D0E0CC24C394D12CC6010C2E02C0880FB4
:100EF000991F0A94E2F78E219F21892B49F42197AB
:100F000098F7B12C8B2DCDB7DEB7E9E00C94CE1E4F
:100F1000BC2EB8018C2F0E94650E019781F3F2CF91
:100F2000CF93DF93D82FC92F0E945E076D2F7C2FA0
:100F30000E94650EDF91CF9108951F93CF93DF93A9
:100F4000162FD72F90919501911541F0862F972F4D
:100F50000E949007DF91CF911F910895811581F034
:100F6000862F972F0E945E07C82F682F812F9D2FF5
:100F70000E943B07612F7D2F8C2F0E94650EEACFC8
:100F8000862F972F0E944C07C82FF4CF0F931F93E3
:100F9000CF93E091A201C7E08091A3018E1304C01A
:100FA000CF911F910F9108950E2F10E0CE9FF00169
:100FB0001124EC55FE4F208131814281538164819F
:100FC000758186810E944706F8013196E770E4CF6B
:100FD0002091DC013091DD014091DE015091DF0173
:100FE0006091E0017091E1018091E2010E94470669
:100FF00008958091E201803178F48091E1018115BA
:1010000059F0E091A2012091A3013091DD014091BE
:10101000DC0157E02E1301C008956E2F70E05E9F33
:10102000F0011124DF01AC55BE4F14968C9114973A
:10103000811561F111968C911197831327C08C91C2
:10104000841324C015968C91159781111FC0129698
:101050008D919C91A091DE01B091DF018A1B9B0BC9
:10106000883C910598F48091E2018F7080618093B3
:10107000E201E655FE4F80818F70806180838CEDA8
:1010800091E00E94CE050E94C6070895FB013196AB
:10109000E770C0CFE091A2019091A30127E0E9138E
:1010A00002C080E00895AE2FB0E02E9FF001112421
:1010B000EC55FE4F3181361306C03081381303C022
:1010C0003581341304C0FD013196E770E8CF81E02B
:1010D00008958F929F92AF92BF92DF92EF92FF920C
:1010E0000F931F93CF93DF93CDB7DEB72D970FB636
:1010F000F894DEBF0FBECDBF8C0186E0F801DE01A3
:10110000189601900D928A95E1F7F801F580848197
:101110009CED892E91E0992E9091E00191111BC0D8
:10112000811509F4FFC0F11409F440C1C8010E94FF
:101130003006811509F43AC187E0F801D401019025
:101140000D928A95E1F7C4010E94FE020E94F90700
:101150000E94E807E7C0E080A280B380D090E10160
:101160002091DE013091DF01A501421B530BD11408
:1011700009F4DBC0483C510508F0A6C0811509F40C
:10118000D1C09091DD0191808091E201803108F021
:101190006BC0991228C09091DC019E1124C0F110FF
:1011A0005DC08F7080618093E2010E94E8078CED42
:1011B00091E00E94CE058091E201F8018683F12C36
:1011C0008F2D2D960FB6F894DEBF0FBECDBFDF91E9
:1011D000CF911F910F91FF90EF90DF90BF90AF9054
:1011E0009F908F900895F11039C040E0692D8E2DA9
:1011F0000E944A0840E0692D8E2D0E944A08F82E70
:101200008111DDCF888599850E949007292F22952D
:101210002F70903450F49F70223080F0911599F027
:10122000F8019681903178F4CBCF2A5F2F7022306D
:1012300078F0C8010E94CE05FD2CC2CF911519F09F
:10124000811509F4BDCF805E883008F4B9CFF1CFA5
:10125000803F08F4B5CF815F8330F7CF8091E20102
:1012600081608093E201ABCF991207C09091DC01BD
:101270009E1103C0F11409F479C0C8010E94300620
:10128000811509F493C0F11409F490C08091E20132
:10129000803288F02091DC013091DD013A8329838E
:1012A000BC82AB829091E0019D831E828F83CE0130
:1012B00001960E94CE0587E0F801ACEDB1E0019007
:1012C0000D928A95E1F742CF9091E2019031A0F41E
:1012D000488559856A857B858C859D850E943D065C
:1012E0008CED91E00E94CE0587E0F40111928A9581
:1012F000E9F70E94E80763CF8115A1F02091DD0195
:1013000081812813BACF8091DC018E11B6CFF11004
:10131000B4CF9683C8010E94CE0587E0F4011192F4
:101320008A95E9F7FF24F3944BCF483C510508F028
:1013300041C08115B9F3F114C9F19091DD018181AA
:1013400098132AC08091DC018E1126C08091E201A1
:1013500080FD19C08031B8F08683807F803F39F0EE
:101360008681982F907F905F8F70892B8683C8012C
:101370000E94CE0587E0F801ACEDB1E001900D923E
:101380008A95E1F7E5CE87E0F801ACEDB1E0019098
:101390000D928A95E1F7C6CFC8010E9430068111EF
:1013A0008ACF8091E20181608093E201C8010E94AE
:1013B000CE05B8CF488559856A857B858C859D8506
:1013C0000E943D0691CFAEE0B0E0E9EEF9E00C946A
:1013D000B81E288739874A875B876C877D878E8709
:1013E000CE0108960E9469086C858115A9F06115E7
:1013F00041F0288539854A855B857D858E850E94EB
:10140000470617E08091A2019091A30189133AC089
:101410002E96E3E00C94D41E87E0FE013896DE01A0
:10142000119601900D928A95E1F7611551F3A09103
:10143000A3018A2F90E00196877099272091A2013D
:101440002817190689F097E09A9FD0011124AC550E
:10145000BE4FFE01319601900D929A95E1F780936F
:10146000A3010E94C607CDCF0E9407061092A301D8
:101470001092A20187E0ECEDF1E0DF011D928A9568
:10148000E9F7BFCF189FC00111248C559E4F0E94D1
:101490006908811509F4BCCFE091A2011E9FF001FB
:1014A0001124EC55FE4F20813181428153816481AA
:1014B000758186810E9447068091A20190E0019685
:1014C000877099278093A2019DCF80910B0286950A
:1014D00086958695089580910B0287700895909166
:1014E0000B02977081E0911101C080E00895809116
:1014F0003702089590913702982B90933702089500
:10150000982F909580913702892380933702089510
:1015100010923702089590913602982B90933602DC
:101520000895982F909580913602892380933602F2
:10153000089510923602089508950E949C0A089515
:1015400090910C02292F2823211531F080958923B1
:1015500080930C020E949D0A089508950E94AD0A8E
:10156000089590910D02292F2823281729F0982BF0
:1015700090930D020E94AE0A089590910D02292FBA
:101580002823211531F08095892380930D020E9434
:10159000AE0A089580910D02811529F010920D0276
:1015A00080E00E94AE0A0895CF93C09137028091E7
:1015B0003602C82B80910D02811531F0C82B0E9494
:1015C000871581110E94CA0A8C2FCF910895CF935D
:1015D000DF93C0910201D09103010E94D40A888355
:1015E000C0910201D091030148E050E063E072E055
:1015F000CE010E94F41E892B59F088E0FE01A3E081
:10160000B2E001900D928A95E1F7CE010E94121589
:10161000DF91CF910895CF93DF93C0910001D091D6
:1016200001010E94D40A8983C0910001D091010177
:1016300040E250E063EE71E0CE010E94F41E892B7F
:1016400059F080E2FE01A3EEB1E001900D928A957F
:10165000E1F7CE010E941D15DF91CF9108950E9400
:10166000F816813039F480916A0287FF03C00E9426
:101670000B0B08950E94E70A089508950E943D0B00
:101680000895962F20916B0222FF11C0682F660FDC
:10169000660F660F692B60930B020E94990680917A
:1016A0000B028695869586950E943E0B08950E94B2
:1016B0009906089510920B0280E00E943E0B089557
:1016C00090910B028095892380930B02282F27701D
:1016D00021110DC0891759F090916B0292FF07C03C
:1016E0008695869586950E94A9060E945A0B0895B4
:1016F00090916B0292FB222720F9281769F080FB5A
:1017000092F990936B0280916A0290916B020E9411
:10171000C60B82E00E94600B089580916B0200244A
:1017200082FF0394802D0E94780B089581E00E942F
:10173000780B089580E00E94780B08956FEF7FEF9B
:1017400080E090E00E94461F089580E090E00E94B3
:10175000121F9C0181E0253E3E4F09F080E0089574
:1017600082E090E00E940A1F089583E090E00E94CA
:101770000A1F90E00895682F83E090E00E94281FE0
:10178000089584E090E00E94121F0895BC0184E057
:1017900090E00E94461F0895AB01BC018FE090E0ED
:1017A0000E943A1F0895AB01BC0183E190E00E94C2
:1017B0003A1F089560E070E0CB010E94D30B0895BA
:1017C00060E070E0CB010E94CC0B0E94DA0B089520
:1017D000A8E0B0E0EEEEFBE00C94B91E65EE7EEF03
:1017E00080E090E00E94461F60E082E090E00E946E
:1017F000281F81E090E09093A1018093A0010E94B6
:10180000BB0B60E074E184E090E00E94461F60E062
:1018100086E090E00E94281F60E087E090E00E9450
:10182000281F40E050E0BA0188E090E00E943A1F93
:1018300060E083E290E00E94281F60E08CE090E08E
:101840000E94281F60E08DE090E00E94281F19820E
:101850001A821B821C821D821E821F82188648E00B
:1018600050E067E170E0CE0101960E94181F40E051
:1018700050E0BA018FE190E00E943A1F0E94E00B15
:101880002896E2E00C94D51E0E94E80B0895682F7C
:101890008EE090E00E94281F0895A6E0B0E0E3E506
:1018A000FCE00C94B71E0E94AA178C0180913802AC
:1018B000909139028017910779F019821A820E945B
:1018C000AA17BC0149815A8180E090E00E94CE02B3
:1018D00010933902009338022696E4E00C94D31E4C
:1018E0000E94B617609342027093430280934402B1
:1018F0009093450260933E0270933F0280934002B2
:10190000909341020895089508950E94830C0895CC
:1019100008950E94880C0E94850C089508950E94E5
:101920008E0C089508950E94920C0E948F0C0895C9
:101930008AE59FE00E94C2100E94840C0E94890CDC
:10194000089581E0089581E008950E94A10C089512
:101950000895089508950E94A80C0E94A90C0E9461
:10196000AA0C08950E94A50B811102C00E94440C8C
:101970000E94B00B809346020E94C10B90936B02B1
:1019800080936A020E94E5100E94B50B0E945D06DA
:1019900080919E0190919F010E947E0608950E9471
:1019A000A1170E9414100E94B20C0E94A8020E946B
:1019B000930C0895A6E0B0E0E0EEFCE00C94B01EBD
:1019C0000E94A30C81110AC00E944D0C0E94781342
:1019D0000E94B5022696EBE00C94CC1E0E942A10C1
:1019E0008AE3A82E82E0B82E750110E0F70101917C
:1019F0007F01812F0E94760F1F5F143009F442C0CF
:101A00000817A1F38091460281FD0E947C0F0E947D
:101A1000A50CC82E00E099249394802F0E94760F85
:101A2000182FF50191915F01891731F1D82ED92630
:101A3000F12CEE24E3948D2D8E218115B1F0C1148B
:101A4000A1F0F9820A830E94AA179C838B839D824E
:101A500091E0812F8E21811101C090E049815A814E
:101A60006B817C818D810E94CE02F394EE0CF4E0B8
:101A7000FF12E1CFF50112930F5F043071F60E945F
:101A8000700CA4CF0813BECF9FCF1F93CF93DF93CB
:101A90000E946A0EEC01811522E5920708F05DC0F4
:101AA000811540E5940708F0DBC0803E910528F5DC
:101AB0008D3C910508F0ACC0883A910578F4853AE0
:101AC000910508F0A2C08130910509F441C0049746
:101AD000813A9105E8F1C0E0D0E03AC0885A910916
:101AE0004B97C8F7C85AD0E0CC0FDD1FC05BDE4F64
:101AF0000990D881C02DD4642BC0811550E495077E
:101B0000F8F4C11580E2D80708F0C0C0C83ED1057E
:101B1000F8F0CE019A9581159F41E8F68D2F0E942D
:101B20000B0F182FCE0199270E946A0E212F30E04B
:101B3000322F2227E901CC27DF71C82BD92B08C00F
:101B400099270E946A0ECC27DF70C82BD92BD06A48
:101B5000CE01DF91CF911F910895803842E594071F
:101B6000C8F5803652E5950708F05BC0C03482E5C1
:101B7000D807D0F4C03292E5D90708F04BC08C2FBB
:101B80008695869520E2829FC0011124C37021E0D2
:101B900030E0A90102C0440F551FCA95E2F7EA01DF
:101BA000C82BD92BDD68D4CF8C2F8695869587706E
:101BB00050E2859FC0011124C37021E030E0A901EB
:101BC00002C0440F551FCA95E2F7EA01C82BD92B72
:101BD000DC68BECF803C52E5950758F48F71C03A5F
:101BE000D245A0F590E0982F8827EC01C46FD06A09
:101BF000AFCF805C9245809708F06DCFDC2FCC276B
:101C0000CC27DF71C06FD06AA3CFA497D064A0CFD8
:101C1000D0659ECFCF71D0E0DC2FCC27C16FD06ACA
:101C200097CF86958695877020E2829FC001112408
:101C3000C37021E030E0A90102C0440F551FCA95CE
:101C4000E2F7EA01C82BD92BDA6882CF0E940B0F8A
:101C5000C82FD0E0DC2FCC27CC27DF71D06278CF23
:101C60008F710E940B0F53E0CC0FDD1F5A95E1F7E7
:101C7000CC27DF70282F30E084FF04C050E1859F1F
:101C800090011124C22BD32BD06962CF8D2F8F717D
:101C90000E940B0F182FCE0199270E946A0E212F48
:101CA00030E0322F222722273F71282B392BE901E0
:101CB000D5CF462F672F942F972B943018F40E947E
:101CC0005D01089580E090E008950E94590E0E9401
:101CD000450D08959C01803E910509F448C0D8F453
:101CE0008133910509F47DC048F48932910509F4E6
:101CF0006DC08A9709F47CC0C901089589339105A4
:101D000051F18238910539F1C597B1F780916A0296
:101D100085FFF2CF29C0843E910509F447C048F4FD
:101D2000823E910599F1833E9105A9F121EE30E0C3
:101D3000E3CF863E910509F444C0873E9105E1F664
:101D400080916A0283FD61C090916B0291FF2BC06C
:101D500024EE30E0D1CF80916A028370811152C0AD
:101D600080916B0283FFC8CF29E230E0C5CF80911C
:101D70006A0280FD33C090916B0290FFBDCF23EECD
:101D800030E084FFB9CF20E030E0B6CF80916A0226
:101D900082FDF5CFB1CF80916A0282FD30C0909173
:101DA0006B0290FD2FC084FFA7CFEDCF80916B0217
:101DB00081FFA2CF80916A0227EE30E084FDE3CF5D
:101DC0009BCF80916A0283FDF7CF96CF80916A0204
:101DD00085FD1EC080916B0283FF8ECF29E330E02A
:101DE0008BCF80916A0286FF87CF2AE230E084CFD2
:101DF00080916A0286FF80CF21E330E07DCF22EE22
:101E000030E07ACF20EE30E077CF26EE30E074CFAE
:101E100025E330E071CF90916A0292FF10C041E05B
:101E2000282F2471243009F040E031E0282F287158
:101E3000283009F030E0431711F02CE0822793FF9F
:101E400010C041E0282F2471243109F040E031E036
:101E5000282F2871283109F030E0431711F02CE0C9
:101E6000822730916B0230FF10C051E0282F217182
:101E7000213009F050E041E0282F2871283009F086
:101E800040E0541711F029E0822731FF10C041E0F3
:101E9000282F2171213109F040E031E0282F2871ED
:101EA000283109F030E0431711F029E0822794FD32
:101EB000877E089580E00895CF939C01FB01805EAA
:101EC0009245C1E0809738F4C581C11104C0822FCA
:101ED0008F710E94ED018C2FCF91089508950E947B
:101EE0006E0F089508950E94720F0895E82FF0E094
:101EF000E059FD4F80810895089580EA8A95F1F7B1
:101F0000089500C008950E947D0F0895F894E82F69
:101F1000E295EF70F0E041A18F7021E030E0B9016F
:101F200002C0660F771F8A95E2F7CB01962F909536
:101F3000942391A392A1892B82A37894089581E997
:101F40000E94860F81E90E94860F81E90E94860F18
:101F500081E90E94860F82E60E94860F82E60E9437
:101F6000860F82E60E94860F82E60E94860F089501
:101F7000A0E0B0E0EEEBFFE00C94B31EEC01D62E37
:101F8000062F10E0C80186579E4F7C01FC0180811E
:101F90008F3F09F444C0F894E82FE295EF70F0E029
:101FA00091A18F7021E030E001C0220F8A95EAF7FD
:101FB000892F822B81A382A12095282322A37894A4
:101FC0000E94810FA6E8B1E091E0C12C8D918F3F76
:101FD00079F0E82FE295EF70E05EF0E0208130E0EC
:101FE0008F7002C0359527958A95E2F7892F20FDDD
:101FF00080E0C82A990FF1E0AA38BF0739F7F70146
:1020000080818F3F11F00E94860F61E0C11001C0F6
:1020100060E08D2D0E94830FC00FD11FC882CDB705
:10202000DEB7E8E00C94CF1E0E949F0F84E0E0E74B
:10203000F2E0DF01982F1D929A95E9F7ECE6F2E0C5
:10204000DF011D928A95E9F784E00E946A100E94E0
:102050006F0F0895A4E0B0E0E0E3F0E10C94B61E49
:10206000FE01319684E0DF011D928A95E9F710E0C8
:10207000FE2E0F2F612F8F2D902F0E94B80F1F5F04
:102080001430C1F744E050E06F2D702F8CE692E0E1
:102090000E94F41E21E0892B81F420E044E060E7F7
:1020A00072E08CE692E00E946B10182F0E94730F72
:1020B000812F2496E5E00C94D21E89819A81AB8110
:1020C000BC8180936C0290936D02A0936E02B093DA
:1020D0006F02E4CF0895A0E0B0E0E1E7F0E10C94F6
:1020E000B31ED82EE92EF62ED72F042FC22F21157E
:1020F00079F081E0809349020E94AA1790934802E8
:102100008093470280E0CDB7DEB7E8E00C94CF1EA5
:10211000C0904902C114B1F38091470290914802E6
:102120000E943917059770F310E0A8016D2D7E2DE0
:102130008F2D9D2F0E94F41E892B41F0A8016D2D3B
:102140007E2D8F2D9D2F0E94011FCC2D10924902B4
:102150008C2FD9CF0E94DA0C08950E9443170E9459
:102160004C190E94980C0E9466190E94CF0C0E9484
:1021700073190E9478190E94AA100E9492190E9455
:10218000AB0CF7CF90938F0180938E0108950E943E
:102190009E0B089580E00E94760F817008950E9442
:1021A0002A102FEF86E791E0215080409040E1F720
:1021B00000C000000E942A100E94CA10811521F060
:1021C0000E94C7100E94E61708950E94CF1008953C
:1021D000CF93DF93EB0186319C4719F50E94770A74
:1021E0009D819115A1F08A7A91E0811101C090E062
:1021F00090934A02811549F085E30E9438160E94A7
:102200002F0B80E0DF91CF91089589E2F6CF809186
:102210004A02811521F085E30E945216F0CF89E22F
:10222000FBCF81E0EFCFCF93DF93EC01FB01858102
:10223000811509F4CFC09E0130572332310508F0D3
:10224000AFC00E94C10B90936B0280936A02FE01A3
:10225000E150F047E232F10520F4E659F04E0C94DB
:10226000A31E80916A02816080936A0290C080916F
:102270006B02886080936B028AC080916A028260E0
:10228000F3CF80916A028460EFCF80916A02886008
:10229000EBCF80916B028160EDCF80916B02826009
:1022A000E9CF80916A028061DFCF80916A0280620B
:1022B000DBCF80916A028064D7CF0E9407068091AD
:1022C0006A028068D1CF80916A028C60CDCF809104
:1022D0006B028360CFCF80916A028E7FC5CF8091E1
:1022E0006B02877FC7CF80916A028D7FBDCF8091BF
:1022F0006A028B7FB9CF80916A02877FB5CF8091C8
:102300006B028E7FB7CF80916B028D7FB3CF8091B0
:102310006A028F7EA9CF80916A028F7DA5CF8091BE
:102320006A028F7BA1CF0E94070680916A028F7795
:102330009BCF80916A02837F97CF80916B028C7FC5
:1023400099CF80916A02992782FF939590FB82F939
:1023500090FB83F989CF80916B02982F909590FB29
:1023600080F990FB81F986CF90916A02892F8F7B4B
:1023700096FF806479CF0E94070690916A02892FA8
:1023800097FB87F9805870CF81E00E94470C8091BD
:102390006A0290916B020E94C60B0E94070680E0C1
:1023A000DF91CF91089580E0F0CF90916A02892F5C
:1023B0008F7E94FF806158CF90916A02892F8E7F23
:1023C00090FF816051CF90916B02892F877F93FF9F
:1023D000886050CF81E0E4CF282F35EB2303C00184
:1023E000112497FF04C080589109892F08958058BF
:1023F0009F4FFBCF8091510280FF0DC0609109017A
:1024000070E0660F771F60387105B0F561157105D2
:10241000A9F1862F089581FF07C06091090184E02A
:10242000689FB0011124EFCF82FF04C060910901C1
:1024300088E0F6CF909150029115D9F020910801D3
:1024400080910901682F70E0921730F043E0660F29
:10245000771F4A95E1F7D7CF899FC001112433E058
:10246000880F991F3A95E1F7622F70E00E948F1E46
:10247000CACF68E070E0CDCF8FE7089581E008957E
:102480008091510280FF0CC06091050170E075954C
:102490006795759567956115710549F1862F0895C2
:1024A00081FF06C06091050170E075956795F3CFD7
:1024B0006091050182FD0BC090914F029115A1F032
:1024C0006091040180910501961738F0682F70E043
:1024D0006038710500F38FE70895899FC0011124CA
:1024E00070E00E948F1EF4CF61E070E0D7CF81E0F2
:1024F0000895E3E3E80FE331E0F5F0E0E457F04E50
:102500000C94A31E0E94FA118195809355020895A0
:102510000E94FA11FACF0E94FA1181958093540219
:1025200008950E94FA11FACF0E9440128093560239
:1025300008950E9440128195F9CF0E944012819522
:102540008093570208950E944012FACF815D990B43
:1025500021E030E001C0220F8A95EAF78091530212
:10256000822B809353020895809151028160809361
:1025700051020895809151028260F9CF80915102F9
:102580008460F5CF409154028D3C59F480915502FE
:1025900087FF0DC010925502411559F41092500258
:1025A00008C08E3C81F48091550218169CF34115A9
:1025B00081F08091560290915702892B811159C068
:1025C00010924F0208958F3C41F447FFF0CF1092D4
:1025D0005402809155028115E0CF803D19F4141604
:1025E000B4F3E5CF90915602893D29F41916FCF613
:1025F00010925602DCCF8A3D19F497FFD8CFF8CF5E
:10260000909157028B3D29F497FFD1CF109257023A
:10261000CECF8C3D19F41916CCF3C9CF9FE2980F99
:10262000983090F4815D990B21E030E0B90102C04F
:10263000660F771F8A95E2F7CB0180959091530240
:10264000892380935302B3CF8D3D31F480915102A1
:102650008E7F80935102ABCF8E3D21F48091510249
:102660008D7FF7CF8F3D09F0A2CF809151028B7FF4
:10267000F0CF08950E94AA1720915402309155027C
:10268000232B211521F080934D0290934E0220912F
:10269000560230915702232B211521F080934B02D3
:1026A00090934C0282E592E00E942C15089586E0FA
:1026B000E2E5F2E0DF011D928A95E9F710925002FF
:1026C00010924F02109251020895FC0182818111F3
:1026D0000DC0838181110AC08481811107C081E00E
:1026E0009581911101C080E08170089581E0FCCF57
:1026F000A6E0B0E0EEE7F3E10C94B31E86E0E2E57D
:10270000F2E09E012F5F3F4FD90101900D928A9513
:10271000E1F7109254021092550210925602109254
:1027200057028B819C81892B7901811589F08091D9
:102730004D0290914E020E9439176C018091500217
:102740008115B9F190910A019C151D0408F43EC051
:102750008D819E81892B811591F080914B02909102
:102760004C020E9439178C0180914F02811509F4A7
:102770005FC0909106019017110608F467C0B70179
:1027800082E592E00E948616811105C082E592E002
:102790000E94651381110E943A1386E0F701A2E5B9
:1027A000B2E001900D928A95E1F72696E8E00C944C
:1027B000CF1E20910B019AE0299F900111242C1526
:1027C0003D0530F68F5F8093500202C08F3FD1F7F6
:1027D000DB80D11459F00E94FA1191E01D140CF025
:1027E0009FEF899F802D112480935402DC80D114A7
:1027F00059F00E94FA1191E01D140CF09FEF899F8F
:10280000802D11248093550280915402811509F482
:102810009FCFD0905502D11409F49ACF0E94EC11A9
:10282000809354028D2D0E94EC118093550290CF1D
:10283000209107019AE0299F900111242017310768
:1028400008F09DCF8F5F80934F0202C08F3FD1F77A
:102850001D81111559F00E94401291E011160CF0E3
:102860009FEF899F802D1124809356021E811115A0
:1028700059F00E94401291E011160CF09FEF899FD1
:10288000802D11248093570280915602811509F4FE
:1028900076CF10915702111509F471CF0E94EC11F7
:1028A00080935602812F0E94EC118093570267CFCC
:1028B0000F931F93CF93DF93C42FD22FFC018581F9
:1028C0008115C9F040935A020E94AA1790935902A9
:1028D0008093580280E28C0F883040F4C77081E00A
:1028E00001C0880FCA95EAF70E94AF03DF91CF912C
:1028F0001F910F91089510915A02141333C08091C3
:102900005802909159020E943917883C910550F560
:10291000C0E2CD0F1D17C1F080E2810F883040F476
:10292000177081E001C0880F1A95EAF70E94B6037C
:10293000C83050F491E08D2F877001C0990F8A95AF
:10294000EAF7892F0E94AF03802F0E94A603C830A8
:1029500068F6D77081E001C0880FDA95EAF70E9427
:10296000B603C4CF80E28C0F883008F0BFCFC770A9
:1029700081E001C0880FCA95EAF7F1CF0F93DB0120
:10298000FC01E851FC47E730F10598F5E156F04EBF
:102990000C94A31E06E221EE41EE6AE17CE7CD0134
:1029A0000E94581480E00F91089507E225EE45EE4D
:1029B0006BE17CE7F4CF06E221EE40EE68E17CE7D4
:1029C000EECF07E225EE44EE69E17CE7E8CF06E2D0
:1029D00021EE42EE6CE17CE7E2CF07E225EE46EE27
:1029E0006DE17CE7DCCF08E221E045EE6EE17CE7BB
:1029F000D6CF15968C91811110925A0281E0D3CFD7
:102A00009093600280935F020895E0915F02F091DD
:102A10006002309729F00190F081E02D099508952A
:102A200080E00895E0915F02F0916002309721F01C
:102A30000280F381E02D09950895DC01E0915F02A9
:102A4000F0916002309739F086E08C930480F58134
:102A5000E02DCD0109950895DC01E0915F02F09130
:102A60006002309739F082E08C930680F781E02D88
:102A7000CD0109950895A3E0B0E0E1E4F5E10C94FF
:102A8000B91E9C0180915D0290915E0282179307AE
:102A9000A1F030935E0220935D02E0915F02F0911D
:102AA0006002309751F083E089833B832A8300845E
:102AB000F185E02DCE01019609952396E2E00C9474
:102AC000D51EA3E0B0E0E7E6F5E10C94B91E9C0149
:102AD00080915B0290915C0282179307A1F0309382
:102AE0005C0220935B02E0915F02F09160023097FC
:102AF00051F084E089833B832A830084F185E02DB3
:102B0000CE01019609952396E2E00C94D51ECF9351
:102B1000DF93C0910201D091030122960E94F81622
:102B2000813081F480916A0287FF0CC0C09100015E
:102B3000D091010122969EE180E0915028F4DF912E
:102B4000CF91089596E0F8CF29912115B1F38F5FC9
:102B5000F4CFCF93C82F811102C080E031C00E9412
:102B6000F816813021F480916A0287FD0EC08091B1
:102B7000020190910301FC013296089621912C17D5
:102B800009F1E817F907D1F7E8CF8C2F86958695DC
:102B90008695C03F10F7E0910001F0910101E80F28
:102BA000F11D228130E0C77081E090E002C0880F03
:102BB000991FCA95E2F72823392381E0232B69F274
:102BC000CF91089581E0FCCF9C01FC0132968FEFFC
:102BD00090E04191461751F08F3F19F4411101C027
:102BE000892F9F5F9630A9F78F3F09F40895280F2A
:102BF000311D87FD3A95F901628308959C01FC011E
:102C00003296285F3F4F8191861302C0DF011E92EA
:102C1000E217F307C1F70895FC01862F8695869584
:102C20008695603F60F4E80FF11D677021E030E0A9
:102C300001C0220F6A95EAF78281822B8283089570
:102C4000FC01862F869586958695603F80F4E80F77
:102C5000F11D677081E090E09C0102C0220F331FDC
:102C60006A95E2F7B90160958281682362830895CD
:102C7000CF93C82F0E94F8166C2F813061F4809199
:102C80006A0287FF08C080910001909101010E94B3
:102C90000C16CF91089580910201909103010E943A
:102CA000E415F7CFCF93C82F0E94F8166C2F813010
:102CB00061F480916A0287FF08C0809100019091C1
:102CC00001010E942016CF910895809102019091F8
:102CD00003010E94FE15F7CF0E94F816813079F4A7
:102CE00080916A0287FF0BC0E0910001F091010121
:102CF00032968EE1DF011D928A95E9F70895E09101
:102D00000201F0910301329686E0F4CFDC01FB0171
:102D100011969C9111978181981322C012968C91E3
:102D20001297811519F0928189131AC013968C910C
:102D30001397811519F09381891312C015968C9100
:102D40001597811519F0958189130AC014969C91E5
:102D5000911521F081E02481291303C080E001C096
:102D600081E08170089508950E94B31608958F5FE1
:102D700080930F0160910C0170910D0180910E0103
:102D800090910F010E94B416089583E080930F0183
:102D900060910C0170910D0180910E0190910F01D5
:102DA0000E94B41608950E94B716089581E080939A
:102DB0000F0160910C0170910D0180910E019091B5
:102DC0000F010E94B41608950E94D616089591E04E
:102DD000811101C090E090930E0160910C017091FF
:102DE0000D0180910E0190910F010E94B41608957B
:102DF00080910E01089580930D0160910C017091F6
:102E00000D0180910E0190910F010E94B41608955A
:102E100080910D01089580930C0160910C017091D7
:102E20000D0180910E0190910F010E94B41608953A
:102E300080910C010895089508950E941C1708952B
:102E4000089508950E941B170895CF930E9420179C
:102E50000E942A100E942117C0E08C2F0E94760F3A
:102E6000811105C0CF5FC430C1F7CF91089581E0D3
:102E7000FCCFCF93DF93EC010E94AA178C1B9D0B14
:102E8000DF91CF91089585B7806885BF85B7806849
:102E900085BF08951F921FB61F9211248F939F9391
:102EA000AF93BF9380916102811113C0809174022E
:102EB00090917502A0917602B09177024196A11D82
:102EC000B11D8093740290937502A0937602B09323
:102ED0007702BF91AF919F918F911F901FBE1F905E
:102EE000189580917C02843031F10E948802109202
:102EF000610288E190E020E40FB6F894A8958093F1
:102F000060000FBE2093600083B7817F846083BF21
:102F100083B7816083BF7894889583B78E7F83BFA2
:102F20000FB6F894A8958091600088618093600046
:102F3000109260000FBE08950E9407060E948F0243
:102F4000089582E084BD93E095BD9AEF97BD80938C
:102F50006E0008952FB7F8948091740290917502D5
:102F6000A0917602B09177022FBF08952FB7F89401
:102F7000609174027091750280917602909177024F
:102F80002FBF089578941F921FB61F9211248F931C
:102F90009F93AF93BF938091740290917502A0911B
:102FA0007602B09177020196A11DB11D8093740243
:102FB00090937502A0937602B0937702BF91AF9180
:102FC0009F918F911F901FBE1F90189587E797E7DD
:102FD000909301088093000888E19AE00FB6F89476
:102FE000A895809360000FBE90936000FFCF88E1AA
:102FF0009AE00FB6F894A895809360000FBE909366
:103000006000FFCF282FCB01BA0130917C02343011
:10301000D9F42F702093E9002FEF3091E80035FDAF
:1030200006C035ED3A95F1F700002A95B1F72091E9
:10303000E80025FF09C040E050E00E94091A809195
:10304000E8008E778093E8000895BC0143E050E0EB
:1030500082E00E9402180895BC0146E050E082E040
:103060000E9402180895BC0140E250E082E00E94F4
:1030700002180895CF93DF93D82FC92F0E94F81616
:1030800048E050E06D2F7C2F81E00E94021888E01C
:10309000ED2FFC2FA2E6B2E001900D928A95E1F7A8
:1030A000DF91CF91089580917B02811109C00E9428
:1030B000921B0E94EF1B8091E20084608093E200EB
:1030C000089510927B0208950E94D61681E00E9416
:1030D000E71608956091780281E0611101C080E0F7
:1030E0000E94C516089590917C0281E0943009F009
:1030F00080E0609178020E94D316089542E061EC6E
:1031000081E00E940E1B42E261EC82E00E940E1BF5
:1031100090917C0281E0943009F080E06091780227
:103120000E94B716089580917E02893089F148F493
:10313000823009F4A0C0833009F45AC0813041F0D4
:1031400008958A3009F487C08B3009F46CC0089563
:1031500080917D02813A09F04AC08091E800877F22
:103160008093E8008091810290918202892B61F026
:1031700060E080E090E070E00E94591A8091E800E1
:103180008B778093E800089568E082E692E0F3CFC1
:1031900080917D02813259F5809181029091820265
:1031A000029728F58091E800877F8093E80080915E
:1031B000E80082FF18C09091F3008091F20002971E
:1031C00031F48091F100813011F0863021F480914A
:1031D000F1000E94FB168091E8008B778093E80055
:1031E0000E94421B089580917C028111E0CF0895D6
:1031F00080917D02813AD9F780918102909182027B
:10320000892BA9F78091E800877F8093E80080915F
:10321000E80080FFFCCF0E94F8168093F1008091B7
:10322000E8008E77DBCF80917D02813201F78091BB
:10323000810290918202892BD1F68091E800877FEC
:103240008093E8000E94421B80917F020E94E71653
:103250000E940706089580917D02813241F6809197
:10326000E800877F8093E8000E94421B80918002E3
:103270000E940B17089580917D02813A09F0B7CF23
:103280008091E800877F8093E8008091E80080FFCC
:10329000FCCF0E941817C1CF84B7877F84BF0FB6B9
:1032A000F894A895809160008861809360001092E6
:1032B00060000FBE80E890E00FB6F8948093610044
:1032C000909361000FBE0E94E41608950E94921B25
:1032D0000E94EF1BE2EEF0E08081846080837894AE
:1032E0000E94751E089580E191E00E9400150895E6
:1032F00080917C02853031F480917C02853019F018
:103300000E949C1708950E9471170E94251781152D
:1033100099F380917A02811579F30E94F3190E9442
:103320000706EACF08959A014091830250918402E2
:103330000E949B190895FC01D9018F2F9927833092
:103340009105C1F068F48130910509F447C00297F6
:1033500061F48BE390E028E031E02D933C930895F5
:1033600081329105E1F0829749F180E090E020E020
:1033700030E0F3CFCF019927E13059F08230910549
:1033800059F0E4E0F1E0892B81F7849190E09F010E
:10339000E4CFE0EFF0E0F9CFECECF0E0F6CF89E03D
:1033A00090E02AE131E061157105B9F289E090E021
:1033B00023E331E06130710581F2D7CF84E490E0FE
:1033C0002BE032E06115710541F286EB90E025E5D6
:1033D00031E06130710509F4C0CFC7CF82E190E0E0
:1033E00023E431E0BACF80E189BD82E189BD09B42F
:1033F00000FEFDCF8091D8008F7D8093D800809112
:10340000E00082608093E0008091E00081FDFCCFCD
:103410000895AF92BF92CF92DF92EF92FF920F93F7
:103420001F93CF936C018B017A010E94611BC82FFF
:10343000811123C0E114F10439F0F70180819181F9
:10344000081B190BC80ED91EA12CB12C0115110592
:10345000A1F08091E80085FD21C08091E8008E7781
:103460008093E800E114F10499F0F70180819181E3
:103470008A0D9B1D91838083C5E08C2FCF911F9176
:103480000F91FF90EF90DF90CF90BF90AF90089595
:103490000E94611B8115E9F2C82FEFCFF6018191DF
:1034A0006F018093F10001501109FFEFAF1ABF0ABD
:1034B000CDCFFC019B0180918302909184028617FD
:1034C000970718F0672B61F0C90140E0009771F48D
:1034D00041110CC08091E80082FF35C080E0089562
:1034E0008091E8008E778093E800EECF20917C02F7
:1034F0002115A9F12530A9F12091E80023FD2DC067
:103500002091E80022FDE6CF2091E80020FFDECFE9
:103510003091F3002091F200009719F02830310526
:1035200058F041E02830310509F040E02091E800F2
:103530002E772093E800CACF41914093F100019784
:103540002F5F3F4FE9CF80917C02811541F085309C
:1035500041F08091E80083FFBDCF81E0089582E0D3
:10356000089583E00895FC019B018091830290916E
:1035700084028617970718F0672B61F0C90140E0B5
:10358000009771F441110CC08091E80082FF36C0B1
:1035900080E008958091E8008E778093E800EECF78
:1035A00020917C022115B1F12530B1F12091E80084
:1035B00023FD2EC02091E80022FDE6CF2091E800F7
:1035C00020FFDECF3091F3002091F200009719F038
:1035D0002830310558F041E02830310509F040E04D
:1035E0002091E8002E772093E800CACF44914093C1
:1035F000F100319601972F5F3F4FE8CF80917C0219
:10360000811541F0853041F08091E80083FFBCCF07
:1036100081E0089582E0089583E00895982F97301F
:1036200028F08F708093E90081E008959093E9007D
:10363000242F762F50E0981731F07091EC002091F4
:10364000ED005091F00021FD02C09F5FE8CF309166
:10365000EB003E7F3093EB003091ED003D7F3093E7
:10366000ED003091EB0031603093EB007093EC0093
:103670002093ED005093F0002091EE0027FDE5CF60
:1036800080E0089580917D0287FF13C08091E8005B
:1036900082FF06C08091E8008B778093E800089550
:1036A00080917C028111F2CF089580917C02811576
:1036B000D9F38091E80080FFF8CF8091E8008E7701
:1036C000ECCF2091E4003091E50095E6A90120912E
:1036D000EC00822F817020FF06C08091E80080FFFF
:1036E00006C080E008952091E80022FD1AC0809174
:1036F0007C02811589F0853089F08091EB0085FD91
:103700000FC02091E4003091E50042175307F9F211
:103710009A95E1F684E0089582E0089583E00895A3
:1037200081E008950E94011C0E94091CE0EEF0E077
:10373000808181608083E8EDF0E080818F778083F5
:1037400019BCA7EDB0E08C918E7F8C9380818F7E29
:10375000808310927B0208950F931F93CF93DF9382
:103760000E94011C0E94091CC8EDD0E088818F775F
:10377000888388818068888388818F7D888319BC4D
:1037800010927C021092780210927A0210927902C2
:1037900000EE10E0F80180818B7F8083888181605A
:1037A000888342E060E080E00E940E1BE1EEF0E0E2
:1037B00080818E7F8083E2EEF0E080818160808373
:1037C000808188608083F80180818E7F80838881FA
:1037D00080618883DF91CF911F910F910895E8ED6B
:1037E000F0E080818F7E8083E7EDF0E08081816072
:1037F000808384E082BF81E080937B020E94AC1BC7
:103800000895E8EDF0E080818E7F80831092E200E1
:1038100008951092DA001092E10008951F920F921D
:103820000FB60F9211242F933F934F935F936F9393
:103830007F938F939F93AF93BF93EF93FF93809169
:10384000E10082FF0BC08091E20082FF07C08091FF
:10385000E1008B7F8093E1000E94741E8091DA006A
:1038600080FF19C08091D80080FF15C08091DA00D8
:103870008E7F8093DA008091D90080FF94C080E130
:1038800089BD82E189BD09B400FEFDCF81E080934E
:103890007C020E9453188091E10080FF19C0809142
:1038A000E20080FF15C08091E2008E7F8093E200ED
:1038B0008091E20080618093E2008091D800806274
:1038C0008093D80019BC85E080937C020E946A181E
:1038D0008091E10084FF29C08091E20084FF25C02F
:1038E00080E189BD82E189BD09B400FEFDCF8091F0
:1038F000D8008F7D8093D8008091E1008F7E8093E7
:10390000E1008091E2008F7E8093E2008091E200EE
:1039100081608093E20080917802811509F449C0AA
:1039200084E080937C020E9473188091E10083FF01
:1039300029C08091E20083FF25C08091E100877F4C
:103940008093E10082E080937C0210927802809163
:10395000E1008E7F8093E1008091E2008E7F809372
:10396000E2008091E20080618093E20042E060E04A
:1039700080E00E940E1B8091F00088608093F00030
:103980000E946418FF91EF91BF91AF919F918F9129
:103990007F916F915F914F913F912F910F900FBE4B
:1039A0000F901F90189519BC10927C020E9461180C
:1039B00072CF8091E30087FF02C083E0B2CF81E045
:1039C000B0CF1F920F920FB60F921124EF92FF9279
:1039D0000F931F932F933F934F935F936F937F9317
:1039E0008F939F93AF93BF93CF93EF93FF9309EE82
:1039F00010E0F8018081C091EC008F70C795CC2752
:103A0000C795C82B108280EFE82EF12CF70180813A
:103A1000877F808378940E942C1DF8011082F70123
:103A2000808188608083CF70F801C083FF91EF911F
:103A3000CF91BF91AF919F918F917F916F915F9146
:103A40004F913F912F911F910F91FF90EF900F9009
:103A50000FBE0F901F901895AAE2B0E0E2E3FDE1DF
:103A60000C94B71E8DE792E0FC0101962091F100C5
:103A7000208322E085389207B9F70E94931880913D
:103A8000E80083FF38C080917D0290917E029A30D9
:103A900090F5E92FF0E0EA55F04E0C94A31E803823
:103AA00089F0823841F5809181028F70873018F556
:103AB0008093E9008091EB0085FB882780F91092C4
:103AC000E90006C080917A02880F90917902892BD3
:103AD0009091E800977F9093E8008093F100109216
:103AE000F1008091E8008E7723C0811116C080918B
:103AF0007F02813011F18091E80083FF0AC080913C
:103B0000E800877F8093E8008091EB0080628093DB
:103B1000EB00AA96E4E00C94D31E823061F780910A
:103B20007F02811589F01092E9008091E800877F7B
:103B30008093E8000E94421BDECF81E0933009F0C1
:103B400080E080937A02EFCF809181028F702FEF17
:103B5000280F263080F68093E9002091EB0020FFAB
:103B6000E2CF933031F48091EB0080628093EB00E0
:103B7000DACF9091EB0090619093EB0021E030E080
:103B8000A90102C0440F551F8A95E2F74093EA004D
:103B90001092EA008091EB008860E8CF8111ABCFF2
:103BA00010917F021F778091E3008078812B8093B2
:103BB000E3008091E800877F8093E8000E94421B29
:103BC0008091E80080FFFCCF8091E30080688093C3
:103BD000E30083E0111101C082E080937C028BCF6F
:103BE0008058823008F087CF80917F0290918002C8
:103BF0008C3D53E0950799F583E08A838AE28983B7
:103C00004FB7F894DE01139620E03EE051E2E32F37
:103C1000F0E050935700849120FF03C082958F708D
:103C20003F5F8F708A30C8F0895C90E08D939D93E0
:103C30002F5F243161F74FBF8091E800877F809329
:103C4000E8006AE270E0CE0101960E94591A809164
:103C5000E8008B778093E8004ECF805DE6CF6091DF
:103C6000810270918202AE014F5F5F4F0E949319F3
:103C70008C01892B09F43FCF8091E800877F8093E6
:103C8000E800B80189819A810E94B31AE0CF803898
:103C900009F031CF8091E800877F8093E800809120
:103CA00078028093F1001DCF811125CF90917F0282
:103CB000923008F020CF8091E800877F8093E80061
:103CC000909378020E94421B80917802811531F016
:103CD00084E080937C020E947E180DCF8091E300E7
:103CE00087FDF6CF81E0F5CF0895CF9380917C02D8
:103CF000811599F08091E900C091EC008F70C79513
:103D0000CC27C795C82B1092E9008091E80083FD6D
:103D10000E942C1DCF70C093E900CF91089597FBAE
:103D2000072E16F4009407D077FD09D00E94E01EFC
:103D300007FC05D03EF4909581959F4F08957095AE
:103D400061957F4F0895EE0FFF1F0590F491E02DD0
:103D500009942F923F924F925F926F927F928F922F
:103D60009F92AF92BF92CF92DF92EF92FF920F930A
:103D70001F93CF93DF93CDB7DEB7CA1BDB0B0FB614
:103D8000F894DEBF0FBECDBF09942A8839884888D1
:103D90005F846E847D848C849B84AA84B984C88467
:103DA000DF80EE80FD800C811B81AA81B981CE0F5E
:103DB000D11D0FB6F894DEBF0FBECDBFED01089543
:103DC000AA1BBB1B51E107C0AA1FBB1FA617B70741
:103DD00010F0A61BB70B881F991F5A95A9F780955D
:103DE0009095BC01CD010895FB01DC0104C08D91CB
:103DF0000190801921F441505040C8F7881B990B5D
:103E00000895FB01DC0102C001900D924150504029
:103E1000D8F70895F999FECF92BD81BDF89A9927F8
:103E200080B50895A8E1B0E042E050E00C944E1F48
:103E3000DC01A40FB51F4150504048F0CB01840F66
:103E4000951F2E910E94291F41505040D0F7089590
:103E5000262FF999FECF92BD81BDF89A019700B443
:103E6000021639F01FBA20BD0FB6F894FA9AF99AE3
:103E70000FBE08950396272F0E94291F0E94281F16
:103E8000252F0E94291F242F0C94291F0196272FCC
:103E90000E94291F0C94281FDC01CB01FC01F99919
:103EA000FECF06C0F2BDE1BDF89A319600B40D9286
:103EB00041505040B8F70895F894FFCFFB03FB033F
:103EC0003F043F04A304C0042A042A04C504410596
:103ED000520552056B11DC1173113D11411177111F
:103EE00045117B1187115111D51155118B115911A4
:103EF0008F11B4115D119311BB1163119911A111AF
:103F000049117F114D11831167119D11AB11C4111E
:103F1000D31137116F11E311821288128B12911293
:103F2000A612A612A612A612A612A612A612A612D1
:103F3000941299129D12A312B412BA12BE12DB147B
:103F4000E114CA14D514E714ED14F3144F1D751DB4
:103F50007B1D751D7B1DCE1DF01D7B1D471E541E38
:103F60000E022E02280850011E0A14010000010052
:103F700008173A1833182C182518E200E900EA004F
:103F8000B500B600B700CD008301CC008A019201D4
:103F900094012102230224022502260227022A027A
:103FA000B300B4006F0070009F01CB019F02A0021C
:103FB000E200E900EA00B500B600B700CD008301D9
:103FC000CC008A01920194012102230224022502DD
:103FD000260227022A02B300B4006F0070009F017E
:0E3FE000CB019F02A0026262626291919191F8
:00000001FF
